{
  "contractName": "FessChain",
  "abi": [
    {
      "constant": true,
      "inputs": [
        {
          "name": "",
          "type": "address"
        }
      ],
      "name": "teamTokenHolder",
      "outputs": [
        {
          "name": "",
          "type": "bool"
        }
      ],
      "payable": false,
      "stateMutability": "view",
      "type": "function"
    },
    {
      "constant": true,
      "inputs": [
        {
          "name": "",
          "type": "address"
        }
      ],
      "name": "marketingTokenHolder",
      "outputs": [
        {
          "name": "",
          "type": "bool"
        }
      ],
      "payable": false,
      "stateMutability": "view",
      "type": "function"
    },
    {
      "constant": true,
      "inputs": [],
      "name": "name",
      "outputs": [
        {
          "name": "",
          "type": "string"
        }
      ],
      "payable": false,
      "stateMutability": "view",
      "type": "function"
    },
    {
      "constant": false,
      "inputs": [
        {
          "name": "spender",
          "type": "address"
        },
        {
          "name": "value",
          "type": "uint256"
        }
      ],
      "name": "approve",
      "outputs": [
        {
          "name": "",
          "type": "bool"
        }
      ],
      "payable": false,
      "stateMutability": "nonpayable",
      "type": "function"
    },
    {
      "constant": true,
      "inputs": [],
      "name": "airDropInIEO",
      "outputs": [
        {
          "name": "",
          "type": "uint256"
        }
      ],
      "payable": false,
      "stateMutability": "view",
      "type": "function"
    },
    {
      "constant": true,
      "inputs": [],
      "name": "totalSupply",
      "outputs": [
        {
          "name": "",
          "type": "uint256"
        }
      ],
      "payable": false,
      "stateMutability": "view",
      "type": "function"
    },
    {
      "constant": true,
      "inputs": [],
      "name": "decimals",
      "outputs": [
        {
          "name": "",
          "type": "uint8"
        }
      ],
      "payable": false,
      "stateMutability": "view",
      "type": "function"
    },
    {
      "constant": true,
      "inputs": [
        {
          "name": "",
          "type": "address"
        }
      ],
      "name": "teamTokenInitially",
      "outputs": [
        {
          "name": "",
          "type": "uint256"
        }
      ],
      "payable": false,
      "stateMutability": "view",
      "type": "function"
    },
    {
      "constant": false,
      "inputs": [
        {
          "name": "spender",
          "type": "address"
        },
        {
          "name": "addedValue",
          "type": "uint256"
        }
      ],
      "name": "increaseAllowance",
      "outputs": [
        {
          "name": "",
          "type": "bool"
        }
      ],
      "payable": false,
      "stateMutability": "nonpayable",
      "type": "function"
    },
    {
      "constant": true,
      "inputs": [],
      "name": "tokenForSale",
      "outputs": [
        {
          "name": "",
          "type": "uint256"
        }
      ],
      "payable": false,
      "stateMutability": "view",
      "type": "function"
    },
    {
      "constant": false,
      "inputs": [],
      "name": "unpause",
      "outputs": [],
      "payable": false,
      "stateMutability": "nonpayable",
      "type": "function"
    },
    {
      "constant": true,
      "inputs": [
        {
          "name": "",
          "type": "address"
        }
      ],
      "name": "marketingLockPeriodStart",
      "outputs": [
        {
          "name": "",
          "type": "uint256"
        }
      ],
      "payable": false,
      "stateMutability": "view",
      "type": "function"
    },
    {
      "constant": true,
      "inputs": [
        {
          "name": "",
          "type": "address"
        }
      ],
      "name": "teamLockPeriodStart",
      "outputs": [
        {
          "name": "",
          "type": "uint256"
        }
      ],
      "payable": false,
      "stateMutability": "view",
      "type": "function"
    },
    {
      "constant": true,
      "inputs": [],
      "name": "paused",
      "outputs": [
        {
          "name": "",
          "type": "bool"
        }
      ],
      "payable": false,
      "stateMutability": "view",
      "type": "function"
    },
    {
      "constant": true,
      "inputs": [
        {
          "name": "",
          "type": "address"
        }
      ],
      "name": "teamTokenSent",
      "outputs": [
        {
          "name": "",
          "type": "uint256"
        }
      ],
      "payable": false,
      "stateMutability": "view",
      "type": "function"
    },
    {
      "constant": true,
      "inputs": [
        {
          "name": "account",
          "type": "address"
        }
      ],
      "name": "balanceOf",
      "outputs": [
        {
          "name": "",
          "type": "uint256"
        }
      ],
      "payable": false,
      "stateMutability": "view",
      "type": "function"
    },
    {
      "constant": false,
      "inputs": [],
      "name": "acceptOwnership",
      "outputs": [],
      "payable": false,
      "stateMutability": "nonpayable",
      "type": "function"
    },
    {
      "constant": false,
      "inputs": [],
      "name": "pause",
      "outputs": [],
      "payable": false,
      "stateMutability": "nonpayable",
      "type": "function"
    },
    {
      "constant": true,
      "inputs": [],
      "name": "marketingTokens",
      "outputs": [
        {
          "name": "",
          "type": "uint256"
        }
      ],
      "payable": false,
      "stateMutability": "view",
      "type": "function"
    },
    {
      "constant": true,
      "inputs": [],
      "name": "owner",
      "outputs": [
        {
          "name": "",
          "type": "address"
        }
      ],
      "payable": false,
      "stateMutability": "view",
      "type": "function"
    },
    {
      "constant": true,
      "inputs": [],
      "name": "symbol",
      "outputs": [
        {
          "name": "",
          "type": "string"
        }
      ],
      "payable": false,
      "stateMutability": "view",
      "type": "function"
    },
    {
      "constant": false,
      "inputs": [
        {
          "name": "spender",
          "type": "address"
        },
        {
          "name": "subtractedValue",
          "type": "uint256"
        }
      ],
      "name": "decreaseAllowance",
      "outputs": [
        {
          "name": "",
          "type": "bool"
        }
      ],
      "payable": false,
      "stateMutability": "nonpayable",
      "type": "function"
    },
    {
      "constant": true,
      "inputs": [],
      "name": "bountyInIEO",
      "outputs": [
        {
          "name": "",
          "type": "uint256"
        }
      ],
      "payable": false,
      "stateMutability": "view",
      "type": "function"
    },
    {
      "constant": true,
      "inputs": [],
      "name": "airDropWithDapps",
      "outputs": [
        {
          "name": "",
          "type": "uint256"
        }
      ],
      "payable": false,
      "stateMutability": "view",
      "type": "function"
    },
    {
      "constant": true,
      "inputs": [],
      "name": "mintingTokens",
      "outputs": [
        {
          "name": "",
          "type": "uint256"
        }
      ],
      "payable": false,
      "stateMutability": "view",
      "type": "function"
    },
    {
      "constant": true,
      "inputs": [],
      "name": "teamTokens",
      "outputs": [
        {
          "name": "",
          "type": "uint256"
        }
      ],
      "payable": false,
      "stateMutability": "view",
      "type": "function"
    },
    {
      "constant": true,
      "inputs": [],
      "name": "newOwner",
      "outputs": [
        {
          "name": "",
          "type": "address"
        }
      ],
      "payable": false,
      "stateMutability": "view",
      "type": "function"
    },
    {
      "constant": true,
      "inputs": [
        {
          "name": "owner",
          "type": "address"
        },
        {
          "name": "spender",
          "type": "address"
        }
      ],
      "name": "allowance",
      "outputs": [
        {
          "name": "",
          "type": "uint256"
        }
      ],
      "payable": false,
      "stateMutability": "view",
      "type": "function"
    },
    {
      "constant": true,
      "inputs": [],
      "name": "totalReleased",
      "outputs": [
        {
          "name": "",
          "type": "uint256"
        }
      ],
      "payable": false,
      "stateMutability": "view",
      "type": "function"
    },
    {
      "constant": true,
      "inputs": [],
      "name": "maintainanceTokens",
      "outputs": [
        {
          "name": "",
          "type": "uint256"
        }
      ],
      "payable": false,
      "stateMutability": "view",
      "type": "function"
    },
    {
      "constant": false,
      "inputs": [
        {
          "name": "_newOwner",
          "type": "address"
        }
      ],
      "name": "transferOwnership",
      "outputs": [],
      "payable": false,
      "stateMutability": "nonpayable",
      "type": "function"
    },
    {
      "inputs": [
        {
          "name": "_owner",
          "type": "address"
        }
      ],
      "payable": false,
      "stateMutability": "nonpayable",
      "type": "constructor"
    },
    {
      "anonymous": false,
      "inputs": [],
      "name": "Pause",
      "type": "event"
    },
    {
      "anonymous": false,
      "inputs": [],
      "name": "Unpause",
      "type": "event"
    },
    {
      "anonymous": false,
      "inputs": [
        {
          "indexed": true,
          "name": "from",
          "type": "address"
        },
        {
          "indexed": true,
          "name": "_to",
          "type": "address"
        }
      ],
      "name": "OwnershipTransferred",
      "type": "event"
    },
    {
      "anonymous": false,
      "inputs": [
        {
          "indexed": true,
          "name": "from",
          "type": "address"
        },
        {
          "indexed": true,
          "name": "to",
          "type": "address"
        },
        {
          "indexed": false,
          "name": "value",
          "type": "uint256"
        }
      ],
      "name": "Transfer",
      "type": "event"
    },
    {
      "anonymous": false,
      "inputs": [
        {
          "indexed": true,
          "name": "owner",
          "type": "address"
        },
        {
          "indexed": true,
          "name": "spender",
          "type": "address"
        },
        {
          "indexed": false,
          "name": "value",
          "type": "uint256"
        }
      ],
      "name": "Approval",
      "type": "event"
    },
    {
      "constant": false,
      "inputs": [
        {
          "name": "recipient",
          "type": "address"
        },
        {
          "name": "amount",
          "type": "uint256"
        }
      ],
      "name": "transfer",
      "outputs": [
        {
          "name": "",
          "type": "bool"
        }
      ],
      "payable": false,
      "stateMutability": "nonpayable",
      "type": "function"
    },
    {
      "constant": false,
      "inputs": [
        {
          "name": "sender",
          "type": "address"
        },
        {
          "name": "recipient",
          "type": "address"
        },
        {
          "name": "amount",
          "type": "uint256"
        }
      ],
      "name": "transferFrom",
      "outputs": [
        {
          "name": "",
          "type": "bool"
        }
      ],
      "payable": false,
      "stateMutability": "nonpayable",
      "type": "function"
    },
    {
      "constant": false,
      "inputs": [
        {
          "name": "_teamAddress",
          "type": "address"
        },
        {
          "name": "_value",
          "type": "uint256"
        }
      ],
      "name": "sendTeamTokens",
      "outputs": [
        {
          "name": "",
          "type": "bool"
        }
      ],
      "payable": false,
      "stateMutability": "nonpayable",
      "type": "function"
    },
    {
      "constant": false,
      "inputs": [
        {
          "name": "_marketingAddress",
          "type": "address"
        },
        {
          "name": "_value",
          "type": "uint256"
        }
      ],
      "name": "sendMarketingTokens",
      "outputs": [
        {
          "name": "",
          "type": "bool"
        }
      ],
      "payable": false,
      "stateMutability": "nonpayable",
      "type": "function"
    },
    {
      "constant": false,
      "inputs": [
        {
          "name": "_maintainanceAddress",
          "type": "address"
        },
        {
          "name": "_value",
          "type": "uint256"
        }
      ],
      "name": "sendMaintainanceTokens",
      "outputs": [
        {
          "name": "",
          "type": "bool"
        }
      ],
      "payable": false,
      "stateMutability": "nonpayable",
      "type": "function"
    },
    {
      "constant": false,
      "inputs": [
        {
          "name": "_airDropAddress",
          "type": "address"
        },
        {
          "name": "_value",
          "type": "uint256"
        }
      ],
      "name": "sendAirDropIEO",
      "outputs": [
        {
          "name": "",
          "type": "bool"
        }
      ],
      "payable": false,
      "stateMutability": "nonpayable",
      "type": "function"
    },
    {
      "constant": false,
      "inputs": [
        {
          "name": "_bountyAddress",
          "type": "address"
        },
        {
          "name": "_value",
          "type": "uint256"
        }
      ],
      "name": "sendBountyIEO",
      "outputs": [
        {
          "name": "",
          "type": "bool"
        }
      ],
      "payable": false,
      "stateMutability": "nonpayable",
      "type": "function"
    },
    {
      "constant": false,
      "inputs": [
        {
          "name": "_airDropWithDapps",
          "type": "address"
        },
        {
          "name": "_value",
          "type": "uint256"
        }
      ],
      "name": "sendAirDropAndBountyDapps",
      "outputs": [
        {
          "name": "",
          "type": "bool"
        }
      ],
      "payable": false,
      "stateMutability": "nonpayable",
      "type": "function"
    },
    {
      "constant": false,
      "inputs": [
        {
          "name": "_mintingAddress",
          "type": "address"
        },
        {
          "name": "_value",
          "type": "uint256"
        }
      ],
      "name": "sendMintingTokens",
      "outputs": [
        {
          "name": "",
          "type": "bool"
        }
      ],
      "payable": false,
      "stateMutability": "nonpayable",
      "type": "function"
    },
    {
      "constant": false,
      "inputs": [
        {
          "name": "amount",
          "type": "uint256"
        }
      ],
      "name": "burn",
      "outputs": [],
      "payable": false,
      "stateMutability": "nonpayable",
      "type": "function"
    },
    {
      "constant": false,
      "inputs": [
        {
          "name": "amount",
          "type": "uint256"
        }
      ],
      "name": "withdrawTeamTokens",
      "outputs": [
        {
          "name": "",
          "type": "bool"
        }
      ],
      "payable": false,
      "stateMutability": "nonpayable",
      "type": "function"
    }
  ],
  "bytecode": "0x60806040526001805460a060020a60ff02191690556b01f04ef12cb04cf1580000006005556b07c13bc4b2c133c5600000006006556b033b2e3c9fd0803ce80000006007556a084595161401484a0000006008556a108b2a2c280290940000006009556a18d0bf423c03d8de000000600a556b07452808679520890a000000600b556b0bec4be4d2d5d932aa000000600c556000601355348015620000a357600080fd5b506040516020806200270d833981016040525160008054600160a060020a031916600160a060020a038316179055620000f2306b204fce5e3e2502611000000064010000000062000148810204565b6000546005546200011f913091600160a060020a039091169064010000000062001e266200025a82021704565b6005546013546200013e9164010000000062001c4f6200045382021704565b6013555062000549565b600160a060020a0382161515620001c057604080517f08c379a000000000000000000000000000000000000000000000000000000000815260206004820152601f60248201527f45524332303a206d696e7420746f20746865207a65726f206164647265737300604482015290519081900360640190fd5b600454620001dd908264010000000062001c4f6200045382021704565b600455600160a060020a03821660009081526002602052604090205462000213908264010000000062001c4f6200045382021704565b600160a060020a0383166000818152600260209081526040808320949094558351858152935192939192600080516020620026ed8339815191529281900390910190a35050565b600160a060020a0383161515620002f857604080517f08c379a000000000000000000000000000000000000000000000000000000000815260206004820152602560248201527f45524332303a207472616e736665722066726f6d20746865207a65726f20616460448201527f6472657373000000000000000000000000000000000000000000000000000000606482015290519081900360840190fd5b600160a060020a03821615156200039657604080517f08c379a000000000000000000000000000000000000000000000000000000000815260206004820152602360248201527f45524332303a207472616e7366657220746f20746865207a65726f206164647260448201527f6573730000000000000000000000000000000000000000000000000000000000606482015290519081900360840190fd5b600160a060020a038316600090815260026020526040902054620003c9908264010000000062001cb7620004cf82021704565b600160a060020a03808516600090815260026020526040808220939093559084168152205462000408908264010000000062001c4f6200045382021704565b600160a060020a038084166000818152600260209081526040918290209490945580518581529051919392871692600080516020620026ed83398151915292918290030190a3505050565b600082820183811015620004c857604080517f08c379a000000000000000000000000000000000000000000000000000000000815260206004820152601b60248201527f536166654d6174683a206164646974696f6e206f766572666c6f770000000000604482015290519081900360640190fd5b9392505050565b600080838311156200054257604080517f08c379a000000000000000000000000000000000000000000000000000000000815260206004820152601e60248201527f536166654d6174683a207375627472616374696f6e206f766572666c6f770000604482015290519081900360640190fd5b5050900390565b61219480620005596000396000f3006080604052600436106102025763ffffffff7c0100000000000000000000000000000000000000000000000000000000600035041662ec44de8114610207578063020a6a071461023c57806306fdde031461025d578063095ea7b3146102e75780631196deda1461030b57806312d2e7c21461032f57806318160ddd1461035657806323b872dd1461036b578063313ce56714610395578063374dac03146103c057806339509351146103e15780633970f698146104055780633f4ba83a1461041a578063402621701461043157806342966c6814610452578063471963181461046a5780634e894cbd1461048e5780635410766c146104af5780635c975abb146104d35780636615b0a1146104e857806370a082311461050957806379ba50971461052a5780638456cb591461053f5780638b27306d146105545780638da5cb5b1461056957806395d89b411461025d578063a2fee1181461059a578063a457c2d7146105be578063a74386d0146105e2578063a9059cbb146105f7578063c05c67801461061b578063c27bbc7d14610630578063c3c912c414610645578063c3e3c7bc14610669578063cc13efc61461067e578063d4ee1d90146106a2578063d4f47ddb146106b7578063d55f6cf0146106cf578063dd62ed3e146106f3578063e33b7de31461071a578063f1e7cf8a1461072f578063f2fde38b14610744575b600080fd5b34801561021357600080fd5b50610228600160a060020a0360043516610765565b604080519115158252519081900360200190f35b34801561024857600080fd5b50610228600160a060020a036004351661077a565b34801561026957600080fd5b5061027261078f565b6040805160208082528351818301528351919283929083019185019080838360005b838110156102ac578181015183820152602001610294565b50505050905090810190601f1680156102d95780820380516001836020036101000a031916815260200191505b509250505060405180910390f35b3480156102f357600080fd5b50610228600160a060020a03600435166024356107c6565b34801561031757600080fd5b50610228600160a060020a03600435166024356107dc565b34801561033b57600080fd5b50610344610912565b60408051918252519081900360200190f35b34801561036257600080fd5b50610344610918565b34801561037757600080fd5b50610228600160a060020a036004358116906024351660443561091e565b3480156103a157600080fd5b506103aa6109f8565b6040805160ff9092168252519081900360200190f35b3480156103cc57600080fd5b50610344600160a060020a03600435166109fd565b3480156103ed57600080fd5b50610228600160a060020a0360043516602435610a0f565b34801561041157600080fd5b50610344610a50565b34801561042657600080fd5b5061042f610a56565b005b34801561043d57600080fd5b50610344600160a060020a0360043516610ace565b34801561045e57600080fd5b5061042f600435610ae0565b34801561047657600080fd5b50610228600160a060020a0360043516602435610b04565b34801561049a57600080fd5b50610344600160a060020a0360043516610b91565b3480156104bb57600080fd5b50610228600160a060020a0360043516602435610ba3565b3480156104df57600080fd5b50610228610c60565b3480156104f457600080fd5b50610344600160a060020a0360043516610c70565b34801561051557600080fd5b50610344600160a060020a0360043516610c82565b34801561053657600080fd5b5061042f610c9d565b34801561054b57600080fd5b5061042f610d25565b34801561056057600080fd5b50610344610da2565b34801561057557600080fd5b5061057e610da8565b60408051600160a060020a039092168252519081900360200190f35b3480156105a657600080fd5b50610228600160a060020a0360043516602435610db7565b3480156105ca57600080fd5b50610228600160a060020a0360043516602435610e44565b3480156105ee57600080fd5b50610344610e80565b34801561060357600080fd5b50610228600160a060020a0360043516602435610e86565b34801561062757600080fd5b50610344610f08565b34801561063c57600080fd5b50610344610f0e565b34801561065157600080fd5b50610228600160a060020a0360043516602435610f14565b34801561067557600080fd5b50610344610fa1565b34801561068a57600080fd5b50610228600160a060020a0360043516602435610fa7565b3480156106ae57600080fd5b5061057e611034565b3480156106c357600080fd5b50610228600435611043565b3480156106db57600080fd5b50610228600160a060020a03600435166024356119d8565b3480156106ff57600080fd5b50610344600160a060020a0360043581169060243516611a65565b34801561072657600080fd5b50610344611a90565b34801561073b57600080fd5b50610344611a96565b34801561075057600080fd5b5061042f600160a060020a0360043516611a9c565b600f6020526000908152604090205460ff1681565b600d6020526000908152604090205460ff1681565b60408051808201909152600481527f4645535300000000000000000000000000000000000000000000000000000000602082015281565b60006107d3338484611ae2565b50600192915050565b60015460009060a060020a900460ff16156107f657600080fd5b600054600160a060020a0316331461080d57600080fd5b60065482111561081c57600080fd5b60135461082f908363ffffffff611c4f16565b60135561083a610918565b601354111561084857600080fd5b60065461085b908363ffffffff611cb716565b600655600160a060020a0383166000908152600f60205260409020805460ff191660011790556108cb6108a6606461089a85605f63ffffffff611d1916565b9063ffffffff611db816565b600160a060020a0385166000908152601160205260409020549063ffffffff611c4f16565b600160a060020a03841660009081526011602090815260408083209390935560109052204290556107d3308461090d606461089a87600563ffffffff611d1916565b611e26565b60095481565b60045490565b60015460009060a060020a900460ff161561093857600080fd5b336000908152600d602052604090205460ff161515600114156109e157336000908152600e60205260409020546109799063013c680063ffffffff611c4f16565b4210156109d0576040805160e560020a62461bcd02815260206004820152601c60248201527f4c6f636b20706572696f64206973206e6f7420636f6d706c6574656400000000604482015290519081900360640190fd5b6109db848484611fec565b506109ee565b6109ec848484611fec565b505b5060019392505050565b601281565b60116020526000908152604090205481565b336000818152600360209081526040808320600160a060020a038716845290915281205490916107d3918590610a4b908663ffffffff611c4f16565b611ae2565b60055481565b600054600160a060020a03163314610a6d57600080fd5b60015460a060020a900460ff161515610a8557600080fd5b6001805474ff0000000000000000000000000000000000000000191690556040517f7805862f689e2f13df9f062ff482ad3ad112aca9e0847911ed832e158c525b3390600090a1565b600e6020526000908152604090205481565b60015460a060020a900460ff1615610af757600080fd5b610b01338261204c565b50565b60015460009060a060020a900460ff1615610b1e57600080fd5b600054600160a060020a03163314610b3557600080fd5b600b54821115610b4457600080fd5b601354610b57908363ffffffff611c4f16565b601355610b62610918565b6013541115610b7057600080fd5b600b54610b83908363ffffffff611cb716565b600b556107d3308484611e26565b60106020526000908152604090205481565b60015460009060a060020a900460ff1615610bbd57600080fd5b600054600160a060020a03163314610bd457600080fd5b600854821115610be357600080fd5b601354610bf6908363ffffffff611c4f16565b601355610c01610918565b6013541115610c0f57600080fd5b600854610c22908363ffffffff611cb716565b600855600160a060020a0383166000908152600d60209081526040808320805460ff19166001179055600e90915290204290556107d3308484611e26565b60015460a060020a900460ff1681565b60126020526000908152604090205481565b600160a060020a031660009081526002602052604090205490565b600154600160a060020a03163314610cb457600080fd5b60015460008054604051600160a060020a0393841693909116917f8be0079c531659141344cd1fd0a4f28419497f9722a3daafe3b4186f6b6457e091a3600180546000805473ffffffffffffffffffffffffffffffffffffffff19908116600160a060020a03841617909155169055565b600054600160a060020a03163314610d3c57600080fd5b60015460a060020a900460ff1615610d5357600080fd5b6001805474ff0000000000000000000000000000000000000000191660a060020a1790556040517f6985a02210a168e66602d3235cb6db0e70f92b3ba4d376a33c0f3d9434bff62590600090a1565b60085481565b600054600160a060020a031681565b60015460009060a060020a900460ff1615610dd157600080fd5b600054600160a060020a03163314610de857600080fd5b600a54821115610df757600080fd5b601354610e0a908363ffffffff611c4f16565b601355610e15610918565b6013541115610e2357600080fd5b600a54610e36908363ffffffff611cb716565b600a556107d3308484611e26565b336000818152600360209081526040808320600160a060020a038716845290915281205490916107d3918590610a4b908663ffffffff611cb716565b600a5481565b60015460009060a060020a900460ff1615610ea057600080fd5b336000908152600d602052604090205460ff16151560011415610efd57336000908152600e6020526040902054610ee19063013c680063ffffffff611c4f16565b421015610eed57600080fd5b610ef8338484611e26565b6107d3565b6107d3338484611e26565b600c5481565b600b5481565b60015460009060a060020a900460ff1615610f2e57600080fd5b600054600160a060020a03163314610f4557600080fd5b600c54821115610f5457600080fd5b601354610f67908363ffffffff611c4f16565b601355610f72610918565b6013541115610f8057600080fd5b600c54610f93908363ffffffff611cb716565b600c556107d3308484611e26565b60065481565b60015460009060a060020a900460ff1615610fc157600080fd5b600054600160a060020a03163314610fd857600080fd5b600754821115610fe757600080fd5b601354610ffa908363ffffffff611c4f16565b601355611005610918565b601354111561101357600080fd5b600754611026908363ffffffff611cb716565b6007556107d3308484611e26565b600154600160a060020a031681565b600154600090819060a060020a900460ff161561105f57600080fd5b336000908152600f602052604090205460ff1615156001146110cb576040805160e560020a62461bcd02815260206004820152601160248201527f6e6f742061207465616d206d656d626572000000000000000000000000000000604482015290519081900360640190fd5b336000908152601060205260409020546003906110f89062278d009061089a90429063ffffffff611cb716565b1015611174576040805160e560020a62461bcd02815260206004820152602160248201527f4c6f636b20706572696f64206973206e6f742061626f76652033206d6f6e746860448201527f7300000000000000000000000000000000000000000000000000000000000000606482015290519081900360840190fd5b3360009081526010602052604090205461119e9062278d009061089a90429063ffffffff611cb716565b9050600381101580156111b15750600681105b1561131f57336000908152601160205260409020546111de9060649061089a90600a63ffffffff611d1916565b336000908152601260205260409020546111fe908563ffffffff611c4f16565b1115611254576040805160e560020a62461bcd02815260206004820152601c60248201527f616c7265616479207769746864726177203130202520746f6b656e7300000000604482015290519081900360640190fd5b33600090815260126020526040902054611274908463ffffffff611c4f16565b33600090815260126020818152604080842085905560118252909220549152101561130f576040805160e560020a62461bcd02815260206004820152602960248201527f746f6b656e732073656e74206973206c6172676572207468656e20696e69746960448201527f616c20746f6b656e730000000000000000000000000000000000000000000000606482015290519081900360840190fd5b61131a303385611e26565b6119d2565b600681101580156113305750600981105b1561141d573360009081526011602052604090205461135d9060649061089a90601463ffffffff611d1916565b3360009081526012602052604090205461137d908563ffffffff611c4f16565b11156113d3576040805160e560020a62461bcd02815260206004820152601c60248201527f616c7265616479207769746864726177203230202520746f6b656e7300000000604482015290519081900360640190fd5b336000908152601260205260409020546113f3908463ffffffff611c4f16565b33600090815260126020818152604080842085905560118252909220549152101561130f57600080fd5b6009811015801561142e5750600c81105b156114d1573360009081526011602052604090205461145b9060649061089a90601e63ffffffff611d1916565b3360009081526012602052604090205461147b908563ffffffff611c4f16565b11156113d3576040805160e560020a62461bcd02815260206004820152601c60248201527f616c7265616479207769746864726177203330202520746f6b656e7300000000604482015290519081900360640190fd5b600c81101580156114e25750600f81105b15611585573360009081526011602052604090205461150f9060649061089a90602863ffffffff611d1916565b3360009081526012602052604090205461152f908563ffffffff611c4f16565b11156113d3576040805160e560020a62461bcd02815260206004820152601c60248201527f616c7265616479207769746864726177203430202520746f6b656e7300000000604482015290519081900360640190fd5b600f81101580156115965750601281105b1561163957336000908152601160205260409020546115c39060649061089a90603263ffffffff611d1916565b336000908152601260205260409020546115e3908563ffffffff611c4f16565b11156113d3576040805160e560020a62461bcd02815260206004820152601c60248201527f616c7265616479207769746864726177203530202520746f6b656e7300000000604482015290519081900360640190fd5b6012811015801561164a5750601581105b156116ed57336000908152601160205260409020546116779060649061089a90603c63ffffffff611d1916565b33600090815260126020526040902054611697908563ffffffff611c4f16565b11156113d3576040805160e560020a62461bcd02815260206004820152601c60248201527f616c7265616479207769746864726177203630202520746f6b656e7300000000604482015290519081900360640190fd5b601581101580156116fe5750601881105b156117a1573360009081526011602052604090205461172b9060649061089a90604663ffffffff611d1916565b3360009081526012602052604090205461174b908563ffffffff611c4f16565b11156113d3576040805160e560020a62461bcd02815260206004820152601c60248201527f616c7265616479207769746864726177203730202520746f6b656e7300000000604482015290519081900360640190fd5b601881101580156117b25750601b81105b1561185557336000908152601160205260409020546117df9060649061089a90605063ffffffff611d1916565b336000908152601260205260409020546117ff908563ffffffff611c4f16565b11156113d3576040805160e560020a62461bcd02815260206004820152601c60248201527f616c7265616479207769746864726177203830202520746f6b656e7300000000604482015290519081900360640190fd5b601b81101580156118665750601e81105b1561190957336000908152601160205260409020546118939060649061089a90605a63ffffffff611d1916565b336000908152601260205260409020546118b3908563ffffffff611c4f16565b11156113d3576040805160e560020a62461bcd02815260206004820152601c60248201527f616c7265616479207769746864726177203930202520746f6b656e7300000000604482015290519081900360640190fd5b601e81106119d2573360009081526011602090815260408083205460129092529091205461193d908563ffffffff611c4f16565b1115611993576040805160e560020a62461bcd02815260206004820152601d60248201527f616c726561647920776974686472617720313030202520746f6b656e73000000604482015290519081900360640190fd5b336000908152601260205260409020546119b3908463ffffffff611c4f16565b336000818152601260205260409020919091556119d290309085611e26565b50919050565b60015460009060a060020a900460ff16156119f257600080fd5b600054600160a060020a03163314611a0957600080fd5b600954821115611a1857600080fd5b601354611a2b908363ffffffff611c4f16565b601355611a36610918565b6013541115611a4457600080fd5b600954611a57908363ffffffff611cb716565b6009556107d3308484611e26565b600160a060020a03918216600090815260036020908152604080832093909416825291909152205490565b60135481565b60075481565b600054600160a060020a03163314611ab357600080fd5b6001805473ffffffffffffffffffffffffffffffffffffffff1916600160a060020a0392909216919091179055565b600160a060020a0383161515611b67576040805160e560020a62461bcd028152602060048201526024808201527f45524332303a20617070726f76652066726f6d20746865207a65726f2061646460448201527f7265737300000000000000000000000000000000000000000000000000000000606482015290519081900360840190fd5b600160a060020a0382161515611bed576040805160e560020a62461bcd02815260206004820152602260248201527f45524332303a20617070726f766520746f20746865207a65726f20616464726560448201527f7373000000000000000000000000000000000000000000000000000000000000606482015290519081900360840190fd5b600160a060020a03808416600081815260036020908152604080832094871680845294825291829020859055815185815291517f8c5be1e5ebec7d5bd14f71427d1e84f3dd0314c0f7b2291e5b200ac8c7c3b9259281900390910190a3505050565b600082820183811015611cac576040805160e560020a62461bcd02815260206004820152601b60248201527f536166654d6174683a206164646974696f6e206f766572666c6f770000000000604482015290519081900360640190fd5b8091505b5092915050565b60008083831115611d12576040805160e560020a62461bcd02815260206004820152601e60248201527f536166654d6174683a207375627472616374696f6e206f766572666c6f770000604482015290519081900360640190fd5b5050900390565b600080831515611d2c5760009150611cb0565b50828202828482811515611d3c57fe5b0414611cac576040805160e560020a62461bcd02815260206004820152602160248201527f536166654d6174683a206d756c7469706c69636174696f6e206f766572666c6f60448201527f7700000000000000000000000000000000000000000000000000000000000000606482015290519081900360840190fd5b600080808311611e12576040805160e560020a62461bcd02815260206004820152601a60248201527f536166654d6174683a206469766973696f6e206279207a65726f000000000000604482015290519081900360640190fd5b8284811515611e1d57fe5b04949350505050565b600160a060020a0383161515611eac576040805160e560020a62461bcd02815260206004820152602560248201527f45524332303a207472616e736665722066726f6d20746865207a65726f20616460448201527f6472657373000000000000000000000000000000000000000000000000000000606482015290519081900360840190fd5b600160a060020a0382161515611f32576040805160e560020a62461bcd02815260206004820152602360248201527f45524332303a207472616e7366657220746f20746865207a65726f206164647260448201527f6573730000000000000000000000000000000000000000000000000000000000606482015290519081900360840190fd5b600160a060020a038316600090815260026020526040902054611f5b908263ffffffff611cb716565b600160a060020a038085166000908152600260205260408082209390935590841681522054611f90908263ffffffff611c4f16565b600160a060020a0380841660008181526002602090815260409182902094909455805185815290519193928716927fddf252ad1be2c89b69c2b068fc378daa952ba7f163c4a11628f55a4df523b3ef92918290030190a3505050565b60015460009060a060020a900460ff161561200657600080fd5b612011848484611e26565b600160a060020a0384166000908152600360209081526040808320338085529252909120546109ee918691610a4b908663ffffffff611cb716565b600160a060020a03821615156120d2576040805160e560020a62461bcd02815260206004820152602160248201527f45524332303a206275726e2066726f6d20746865207a65726f2061646472657360448201527f7300000000000000000000000000000000000000000000000000000000000000606482015290519081900360840190fd5b6004546120e5908263ffffffff611cb716565b600455600160a060020a038216600090815260026020526040902054612111908263ffffffff611cb716565b600160a060020a0383166000818152600260209081526040808320949094558351858152935191937fddf252ad1be2c89b69c2b068fc378daa952ba7f163c4a11628f55a4df523b3ef929081900390910190a350505600a165627a7a7230582055de88fefe94729c9b36dbc35bf9f38b210a980e029e746d2cdc74235fcb38920029ddf252ad1be2c89b69c2b068fc378daa952ba7f163c4a11628f55a4df523b3ef",
  "source": "pragma solidity 0.4.24;\n\ncontract Owned {\n    address public owner;\n    address public newOwner;\n\n    event OwnershipTransferred(address indexed from, address indexed _to);\n\n    constructor(address _owner) public {\n        owner = _owner;\n    }\n\n    modifier onlyOwner {\n        require(msg.sender == owner);\n        _;\n    }\n\n    function transferOwnership(address _newOwner) public onlyOwner {\n        newOwner = _newOwner;\n    }\n    function acceptOwnership() public {\n        require(msg.sender == newOwner);\n        emit OwnershipTransferred(owner, newOwner);\n        owner = newOwner;\n        newOwner = address(0);\n    }\n}\n\ncontract Pausable is Owned {\n    event Pause();\n    event Unpause();\n\n    bool public paused = false;\n\n    modifier whenNotPaused() {\n      require(!paused);\n      _;\n    }\n\n    modifier whenPaused() {\n      require(paused);\n      _;\n    }\n\n    function pause() onlyOwner whenNotPaused public {\n      paused = true;\n      emit Pause();\n    }\n\n    function unpause() onlyOwner whenPaused public {\n      paused = false;\n      emit Unpause();\n    }\n}\n\n/**\n * @dev Interface of the ERC20 standard as defined in the EIP. Does not include\n * the optional functions; to access them see `ERC20Detailed`.\n */\ninterface IERC20 {\n    /**\n     * @dev Returns the amount of tokens in existence.\n     */\n    function totalSupply() external view returns (uint256);\n\n    /**\n     * @dev Returns the amount of tokens owned by `account`.\n     */\n    function balanceOf(address account) external view returns (uint256);\n\n    /**\n     * @dev Moves `amount` tokens from the caller's account to `recipient`.\n     *\n     * Returns a boolean value indicating whether the operation succeeded.\n     *\n     * Emits a `Transfer` event.\n     */\n    function transfer(address recipient, uint256 amount) external returns (bool);\n\n    /**\n     * @dev Returns the remaining number of tokens that `spender` will be\n     * allowed to spend on behalf of `owner` through `transferFrom`. This is\n     * zero by default.\n     *\n     * This value changes when `approve` or `transferFrom` are called.\n     */\n    function allowance(address owner, address spender) external view returns (uint256);\n\n    /**\n     * @dev Sets `amount` as the allowance of `spender` over the caller's tokens.\n     *\n     * Returns a boolean value indicating whether the operation succeeded.\n     *\n     * > Beware that changing an allowance with this method brings the risk\n     * that someone may use both the old and the new allowance by unfortunate\n     * transaction ordering. One possible solution to mitigate this race\n     * condition is to first reduce the spender's allowance to 0 and set the\n     * desired value afterwards:\n     * https://github.com/ethereum/EIPs/issues/20#issuecomment-263524729\n     *\n     * Emits an `Approval` event.\n     */\n    function approve(address spender, uint256 amount) external returns (bool);\n\n    /**\n     * @dev Moves `amount` tokens from `sender` to `recipient` using the\n     * allowance mechanism. `amount` is then deducted from the caller's\n     * allowance.\n     *\n     * Returns a boolean value indicating whether the operation succeeded.\n     *\n     * Emits a `Transfer` event.\n     */\n    function transferFrom(address sender, address recipient, uint256 amount) external returns (bool);\n\n    /**\n     * @dev Emitted when `value` tokens are moved from one account (`from`) to\n     * another (`to`).\n     *\n     * Note that `value` may be zero.\n     */\n    event Transfer(address indexed from, address indexed to, uint256 value);\n\n    /**\n     * @dev Emitted when the allowance of a `spender` for an `owner` is set by\n     * a call to `approve`. `value` is the new allowance.\n     */\n    event Approval(address indexed owner, address indexed spender, uint256 value);\n}\n\n// File: openzeppelin-solidity/contracts/math/SafeMath.sol\n\n/**\n * @dev Wrappers over Solidity's arithmetic operations with added overflow\n * checks.\n *\n * Arithmetic operations in Solidity wrap on overflow. This can easily result\n * in bugs, because programmers usually assume that an overflow raises an\n * error, which is the standard behavior in high level programming languages.\n * `SafeMath` restores this intuition by reverting the transaction when an\n * operation overflows.\n *\n * Using this library instead of the unchecked operations eliminates an entire\n * class of bugs, so it's recommended to use it always.\n */\nlibrary SafeMath {\n    /**\n     * @dev Returns the addition of two unsigned integers, reverting on\n     * overflow.\n     *\n     * Counterpart to Solidity's `+` operator.\n     *\n     * Requirements:\n     * - Addition cannot overflow.\n     */\n    function add(uint256 a, uint256 b) internal pure returns (uint256) {\n        uint256 c = a + b;\n        require(c >= a, \"SafeMath: addition overflow\");\n\n        return c;\n    }\n\n    /**\n     * @dev Returns the subtraction of two unsigned integers, reverting on\n     * overflow (when the result is negative).\n     *\n     * Counterpart to Solidity's `-` operator.\n     *\n     * Requirements:\n     * - Subtraction cannot overflow.\n     */\n    function sub(uint256 a, uint256 b) internal pure returns (uint256) {\n        require(b <= a, \"SafeMath: subtraction overflow\");\n        uint256 c = a - b;\n\n        return c;\n    }\n\n    /**\n     * @dev Returns the multiplication of two unsigned integers, reverting on\n     * overflow.\n     *\n     * Counterpart to Solidity's `*` operator.\n     *\n     * Requirements:\n     * - Multiplication cannot overflow.\n     */\n    function mul(uint256 a, uint256 b) internal pure returns (uint256) {\n        // Gas optimization: this is cheaper than requiring 'a' not being zero, but the\n        // benefit is lost if 'b' is also tested.\n        // See: https://github.com/OpenZeppelin/openzeppelin-solidity/pull/522\n        if (a == 0) {\n            return 0;\n        }\n\n        uint256 c = a * b;\n        require(c / a == b, \"SafeMath: multiplication overflow\");\n\n        return c;\n    }\n\n    /**\n     * @dev Returns the integer division of two unsigned integers. Reverts on\n     * division by zero. The result is rounded towards zero.\n     *\n     * Counterpart to Solidity's `/` operator. Note: this function uses a\n     * `revert` opcode (which leaves remaining gas untouched) while Solidity\n     * uses an invalid opcode to revert (consuming all remaining gas).\n     *\n     * Requirements:\n     * - The divisor cannot be zero.\n     */\n    function div(uint256 a, uint256 b) internal pure returns (uint256) {\n        // Solidity only automatically asserts when dividing by 0\n        require(b > 0, \"SafeMath: division by zero\");\n        uint256 c = a / b;\n        // assert(a == b * c + a % b); // There is no case in which this doesn't hold\n\n        return c;\n    }\n\n\n}\n\n// File: openzeppelin-solidity/contracts/token/ERC20/ERC20.sol\n\n/**\n * @dev Implementation of the `IERC20` interface.\n *\n * This implementation is agnostic to the way tokens are created. This means\n * that a supply mechanism has to be added in a derived contract using `_mint`.\n * For a generic mechanism see `ERC20Mintable`.\n *\n * *For a detailed writeup see our guide [How to implement supply\n * mechanisms](https://forum.zeppelin.solutions/t/how-to-implement-erc20-supply-mechanisms/226).*\n *\n * We have followed general OpenZeppelin guidelines: functions revert instead\n * of returning `false` on failure. This behavior is nonetheless conventional\n * and does not conflict with the expectations of ERC20 applications.\n *\n * Additionally, an `Approval` event is emitted on calls to `transferFrom`.\n * This allows applications to reconstruct the allowance for all accounts just\n * by listening to said events. Other implementations of the EIP may not emit\n * these events, as it isn't required by the specification.\n *\n * Finally, the non-standard `decreaseAllowance` and `increaseAllowance`\n * functions have been added to mitigate the well-known issues around setting\n * allowances. See `IERC20.approve`.\n */\ncontract ERC20 is IERC20, Pausable {\n    using SafeMath for uint256;\n\n    mapping (address => uint256) private _balances;\n\n    mapping (address => mapping (address => uint256)) private _allowances;\n\n    uint256 private _totalSupply;\n\n    /**\n     * @dev See `IERC20.totalSupply`.\n     */\n    function totalSupply() public view returns (uint256) {\n        return _totalSupply;\n    }\n\n    /**\n     * @dev See `IERC20.balanceOf`.\n     */\n    function balanceOf(address account) public view returns (uint256) {\n        return _balances[account];\n    }\n\n\n    /**\n     * @dev See `IERC20.allowance`.\n     */\n    function allowance(address owner, address spender) public view returns (uint256) {\n        return _allowances[owner][spender];\n    }\n\n    /**\n     * @dev See `IERC20.approve`.\n     *\n     * Requirements:\n     *\n     * - `spender` cannot be the zero address.\n     */\n    function approve(address spender, uint256 value) public returns (bool) {\n        _approve(msg.sender, spender, value);\n        return true;\n    }\n\n\n    /**\n     * @dev Atomically increases the allowance granted to `spender` by the caller.\n     *\n     * This is an alternative to `approve` that can be used as a mitigation for\n     * problems described in `IERC20.approve`.\n     *\n     * Emits an `Approval` event indicating the updated allowance.\n     *\n     * Requirements:\n     *\n     * - `spender` cannot be the zero address.\n     */\n    function increaseAllowance(address spender, uint256 addedValue) public returns (bool) {\n        _approve(msg.sender, spender, _allowances[msg.sender][spender].add(addedValue));\n        return true;\n    }\n\n    /**\n     * @dev Atomically decreases the allowance granted to `spender` by the caller.\n     *\n     * This is an alternative to `approve` that can be used as a mitigation for\n     * problems described in `IERC20.approve`.\n     *\n     * Emits an `Approval` event indicating the updated allowance.\n     *\n     * Requirements:\n     *\n     * - `spender` cannot be the zero address.\n     * - `spender` must have allowance for the caller of at least\n     * `subtractedValue`.\n     */\n    function decreaseAllowance(address spender, uint256 subtractedValue) public returns (bool) {\n        _approve(msg.sender, spender, _allowances[msg.sender][spender].sub(subtractedValue));\n        return true;\n    }\n\n    /**\n     * @dev Moves tokens `amount` from `sender` to `recipient`.\n     *\n     * This is internal function is equivalent to `transfer`, and can be used to\n     * e.g. implement automatic token fees, slashing mechanisms, etc.\n     *\n     * Emits a `Transfer` event.\n     *\n     * Requirements:\n     *\n     * - `sender` cannot be the zero address.\n     * - `recipient` cannot be the zero address.\n     * - `sender` must have a balance of at least `amount`.\n     */\n    function _transfer(address sender, address recipient, uint256 amount) internal {\n        require(sender != address(0), \"ERC20: transfer from the zero address\");\n        require(recipient != address(0), \"ERC20: transfer to the zero address\");\n\n        _balances[sender] = _balances[sender].sub(amount);\n        _balances[recipient] = _balances[recipient].add(amount);\n        emit Transfer(sender, recipient, amount);\n    }\n\n    /** @dev Creates `amount` tokens and assigns them to `account`, increasing\n     * the total supply.\n     *\n     * Emits a `Transfer` event with `from` set to the zero address.\n     *\n     * Requirements\n     *\n     * - `to` cannot be the zero address.\n     */\n    function _mint(address account, uint256 amount) internal {\n        require(account != address(0), \"ERC20: mint to the zero address\");\n\n        _totalSupply = _totalSupply.add(amount);\n        _balances[account] = _balances[account].add(amount);\n        emit Transfer(address(0), account, amount);\n    }\n\n     /**\n     * @dev Destoys `amount` tokens from `account`, reducing the\n     * total supply.\n     *\n     * Emits a `Transfer` event with `to` set to the zero address.\n     *\n     * Requirements\n     *\n     * - `account` cannot be the zero address.\n     * - `account` must have at least `amount` tokens.\n     */\n    function _burn(address account, uint256 value) internal {\n        require(account != address(0), \"ERC20: burn from the zero address\");\n\n        _totalSupply = _totalSupply.sub(value);\n        _balances[account] = _balances[account].sub(value);\n        emit Transfer(account, address(0), value);\n    }\n\n    /**\n     * @dev See `IERC20.transferFrom`.\n     *\n     * Emits an `Approval` event indicating the updated allowance. This is not\n     * required by the EIP. See the note at the beginning of `ERC20`;\n     *\n     * Requirements:\n     * - `sender` and `recipient` cannot be the zero address.\n     * - `sender` must have a balance of at least `value`.\n     * - the caller must have allowance for `sender`'s tokens of at least\n     * `amount`.\n     */\n    function _transferFrom(address sender, address recipient, uint256 amount) internal whenNotPaused returns (bool) {\n        _transfer(sender, recipient, amount);\n        _approve(sender, msg.sender, _allowances[sender][msg.sender].sub(amount));\n        return true;\n    }\n\n\n    /**\n     * @dev Sets `amount` as the allowance of `spender` over the `owner`s tokens.\n     *\n     * This is internal function is equivalent to `approve`, and can be used to\n     * e.g. set automatic allowances for certain subsystems, etc.\n     *\n     * Emits an `Approval` event.\n     *\n     * Requirements:\n     *\n     * - `owner` cannot be the zero address.\n     * - `spender` cannot be the zero address.\n     */\n    function _approve(address owner, address spender, uint256 value) internal {\n        require(owner != address(0), \"ERC20: approve from the zero address\");\n        require(spender != address(0), \"ERC20: approve to the zero address\");\n\n        _allowances[owner][spender] = value;\n        emit Approval(owner, spender, value);\n    }\n\n}\n\ncontract FessChain is ERC20 {\n\n    using SafeMath for uint256;\n    string  public constant name = \"FESS\";\n    string  public constant symbol = \"FESS\";\n    uint8   public constant decimals = 18;\n\n    uint256 public tokenForSale = 600000000 ether;\n    uint256 public teamTokens = 2400000000 ether; \n    uint256 public maintainanceTokens = 1000000000 ether ;  \n    uint256 public marketingTokens = 10000000 ether ; \n    uint256 public airDropInIEO = 20000000 ether;  \n    uint256 public bountyInIEO = 30000000 ether;  \n    uint256 public mintingTokens = 2250000000 ether;\n    uint256 public airDropWithDapps = 3690000000 ether;\n\n    mapping(address => bool) public marketingTokenHolder;\n    mapping(address => uint256) public marketingLockPeriodStart;\n\n    mapping(address => bool) public teamTokenHolder;\n    mapping(address => uint256) public teamLockPeriodStart;\n    mapping(address => uint256) public teamTokenInitially;\n    mapping(address => uint256) public teamTokenSent;\n\n    uint256 public totalReleased = 0;\n\n    constructor(address _owner) public Owned(_owner) {\n \n        _mint(address(this), 10000000000 ether);\n        super._transfer(address(this),owner,tokenForSale);\n        totalReleased = totalReleased.add(tokenForSale);\n\n    }\n\n    /**\n     * @dev See `IERC20.transfer`.\n     *\n     * Requirements:\n     *\n     * - `recipient` cannot be the zero address.\n     * - the caller must have a balance of at least `amount`.\n     */\n    function transfer(address recipient, uint256 amount) public whenNotPaused returns (bool) {\n\n       if (marketingTokenHolder[msg.sender] == true)\n       { \n        \n        require(now >= (marketingLockPeriodStart[msg.sender]).add(20736000)); // 8 months, taken 30 days in each month\n        super._transfer(msg.sender, recipient, amount);           \n\n       }\n\n      else \n      {\n        super._transfer(msg.sender, recipient, amount);\n      } \n\n\n        return true;\n    }\n\n    /**\n     * @dev See `IERC20.transferFrom`.\n     *\n     * Emits an `Approval` event indicating the updated allowance. This is not\n     * required by the EIP. See the note at the beginning of `ERC20`;\n     *\n     * Requirements:\n     * - `sender` and `recipient` cannot be the zero address.\n     * - `sender` must have a balance of at least `value`.\n     * - the caller must have allowance for `sender`'s tokens of at least\n     * `amount`.\n     */\n    function transferFrom(address sender, address recipient, uint256 amount) public whenNotPaused returns (bool) {\n\n       if (marketingTokenHolder[msg.sender] == true)\n       { \n        \n        require(now >= (marketingLockPeriodStart[msg.sender]).add(20736000),'Lock period is not completed'); // 8 months, taken 30 days in each month\n        super._transferFrom(sender, recipient, amount);           \n\n       }\n\n      else \n      {\n        super._transferFrom(sender, recipient, amount);\n      } \n\n        return true;\n    }\n\n\n    /**\n    * @dev this function will send the Team tokens to given address\n    * @param _teamAddress ,address of the bounty receiver.\n    * @param _value , number of tokens to be sent.\n    */\n    function sendTeamTokens(address _teamAddress, uint256 _value) external whenNotPaused onlyOwner returns (bool) {\n\n        require(teamTokens >= _value);\n        totalReleased = totalReleased.add(_value);\n        require(totalReleased <= totalSupply());\n        teamTokens = teamTokens.sub(_value);\n        teamTokenHolder[_teamAddress] = true;\n        teamTokenInitially[_teamAddress] = teamTokenInitially[_teamAddress].add((_value.mul(95)).div(100));\n        teamLockPeriodStart[_teamAddress] = now; \n        super._transfer(address(this),_teamAddress,(_value.mul(5)).div(100));\n        return true;\n\n   }\n\n    /**\n    * @dev this function will send the Team tokens to given address\n    * @param _marketingAddress ,address of the bounty receiver.\n    * @param _value , number of tokens to be sent.\n    */\n    function sendMarketingTokens(address _marketingAddress, uint256 _value) external whenNotPaused onlyOwner returns (bool) {\n\n        require(marketingTokens >= _value);\n        totalReleased = totalReleased.add(_value);\n        require(totalReleased <= totalSupply());\n        marketingTokens = marketingTokens.sub(_value);\n        marketingTokenHolder[_marketingAddress] = true;\n        marketingLockPeriodStart[_marketingAddress] = now;\n        super._transfer(address(this),_marketingAddress,_value);\n        return true;\n\n   }\n\n    \n    /**\n    * @dev this function will send the Team tokens to given address\n    * @param _maintainanceAddress ,address of the bounty receiver.\n    * @param _value , number of tokens to be sent.\n    */\n    function sendMaintainanceTokens(address _maintainanceAddress, uint256 _value) external whenNotPaused onlyOwner returns (bool) {\n\n        require(maintainanceTokens >= _value);\n        totalReleased = totalReleased.add(_value);\n        require(totalReleased <= totalSupply());\n        maintainanceTokens = maintainanceTokens.sub(_value);\n        super._transfer(address(this),_maintainanceAddress,_value);\n        return true;\n\n   }\n    \n    /**\n    * @dev this function will send the Team tokens to given address\n    * @param _airDropAddress ,address of the bounty receiver.\n    * @param _value , number of tokens to be sent.\n    */\n    function sendAirDropIEO(address _airDropAddress, uint256 _value) external whenNotPaused onlyOwner returns (bool) {\n\n        require(airDropInIEO >= _value);\n        totalReleased = totalReleased.add(_value);\n        require(totalReleased <= totalSupply());\n        airDropInIEO = airDropInIEO.sub(_value);\n        super._transfer(address(this),_airDropAddress,_value);\n        return true;\n\n   }\n\n    /**\n    * @dev this function will send the Team tokens to given address\n    * @param _bountyAddress ,address of the bounty receiver.\n    * @param _value , number of tokens to be sent.\n    */\n    function sendBountyIEO(address _bountyAddress, uint256 _value) external whenNotPaused onlyOwner returns (bool) {\n\n        require(bountyInIEO >= _value);\n        totalReleased = totalReleased.add(_value);\n        require(totalReleased <= totalSupply());\n        bountyInIEO = bountyInIEO.sub(_value);\n        super._transfer(address(this),_bountyAddress,_value);\n        return true;\n\n   }\n\n    \n    /**.\n    * @dev this function will send the Team tokens to given address\n    * @param _airDropWithDapps ,address of the bounty receiver.\n    * @param _value , number of tokens to be sent.\n    */\n    function sendAirDropAndBountyDapps(address _airDropWithDapps, uint256 _value) external whenNotPaused onlyOwner returns (bool) {\n\n        require(airDropWithDapps >= _value);\n        totalReleased = totalReleased.add(_value);\n        require(totalReleased <= totalSupply());\n        airDropWithDapps = airDropWithDapps.sub(_value);\n        super._transfer(address(this),_airDropWithDapps,_value);\n        return true;\n\n   }\n\n    /**\n    * @dev this function will send the Team tokens to given address\n    * @param _mintingAddress ,address of the bounty receiver.\n    * @param _value , number of tokens to be sent.\n    */\n    function sendMintingTokens(address _mintingAddress, uint256 _value) external whenNotPaused onlyOwner returns (bool) {\n\n        require(mintingTokens >= _value);\n        totalReleased = totalReleased.add(_value);\n        require(totalReleased <= totalSupply());\n        mintingTokens = mintingTokens.sub(_value);\n        super._transfer(address(this),_mintingAddress,_value);\n        return true;\n\n   }\n    \n\n    /**\n    * @dev Destoys `amount` tokens from the caller.\n    *\n    * See `ERC20._burn`.\n    */\n    function burn(uint256 amount) external whenNotPaused{\n\n        _burn(msg.sender, amount);\n    }\n\n    function withdrawTeamTokens(uint256 amount) external whenNotPaused returns(bool) {\n\n        require(teamTokenHolder[msg.sender] == true,'not a team member');\n        require(now.sub(teamLockPeriodStart[msg.sender]).div(2592000)>=3,'Lock period is not above 3 months');\n        uint256 monthsNow = now.sub(teamLockPeriodStart[msg.sender]).div(2592000);\n\n        if(monthsNow >=3 && monthsNow < 6) \n        {\n           require(teamTokenSent[msg.sender].add(amount) <= (teamTokenInitially[msg.sender].mul(10)).div(100),'already withdraw 10 % tokens');   \n           teamTokenSent[msg.sender] = teamTokenSent[msg.sender].add(amount);\n           require(teamTokenSent[msg.sender] <= teamTokenInitially[msg.sender],'tokens sent is larger then initial tokens');\n           super._transfer(address(this),msg.sender,amount);      \n        } \n\n        else if(monthsNow >=6 && monthsNow < 9) \n        {\n           require(teamTokenSent[msg.sender].add(amount) <= (teamTokenInitially[msg.sender].mul(20)).div(100),'already withdraw 20 % tokens');\n           teamTokenSent[msg.sender] = teamTokenSent[msg.sender].add(amount);\n           require(teamTokenSent[msg.sender] <= teamTokenInitially[msg.sender]);\n           super._transfer(address(this),msg.sender,amount);           \n        } \n\n        else if(monthsNow >=9 && monthsNow < 12) \n        {\n           require(teamTokenSent[msg.sender].add(amount) <= (teamTokenInitially[msg.sender].mul(30)).div(100),'already withdraw 30 % tokens');\n           teamTokenSent[msg.sender] = teamTokenSent[msg.sender].add(amount);\n           require(teamTokenSent[msg.sender] <= teamTokenInitially[msg.sender]);\n           super._transfer(address(this),msg.sender,amount);\n        } \n\n        else if(monthsNow >=12 && monthsNow < 15) \n        {\n           require(teamTokenSent[msg.sender].add(amount) <= (teamTokenInitially[msg.sender].mul(40)).div(100),'already withdraw 40 % tokens');\n           teamTokenSent[msg.sender] = teamTokenSent[msg.sender].add(amount);\n           require(teamTokenSent[msg.sender] <= teamTokenInitially[msg.sender]);\n           super._transfer(address(this),msg.sender,amount);           \n        } \n\n        else if(monthsNow >=15 && monthsNow < 18) \n        {\n           require(teamTokenSent[msg.sender].add(amount) <= (teamTokenInitially[msg.sender].mul(50)).div(100),'already withdraw 50 % tokens');\n           teamTokenSent[msg.sender] = teamTokenSent[msg.sender].add(amount);\n           require(teamTokenSent[msg.sender] <= teamTokenInitially[msg.sender]);\n           super._transfer(address(this),msg.sender,amount);           \n        } \n\n        else if(monthsNow >=18 && monthsNow < 21) \n        {\n           require(teamTokenSent[msg.sender].add(amount) <= (teamTokenInitially[msg.sender].mul(60)).div(100),'already withdraw 60 % tokens');\n           teamTokenSent[msg.sender] = teamTokenSent[msg.sender].add(amount);\n           require(teamTokenSent[msg.sender] <= teamTokenInitially[msg.sender]);\n           super._transfer(address(this),msg.sender,amount);           \n        } \n\n        else if(monthsNow >=21 && monthsNow < 24) \n        {\n           require(teamTokenSent[msg.sender].add(amount) <= (teamTokenInitially[msg.sender].mul(70)).div(100),'already withdraw 70 % tokens');\n           teamTokenSent[msg.sender] = teamTokenSent[msg.sender].add(amount);\n           require(teamTokenSent[msg.sender] <= teamTokenInitially[msg.sender]);\n           super._transfer(address(this),msg.sender,amount);           \n        } \n\n        else if(monthsNow >=24 && monthsNow < 27) \n        {\n           require(teamTokenSent[msg.sender].add(amount) <= (teamTokenInitially[msg.sender].mul(80)).div(100),'already withdraw 80 % tokens');\n           teamTokenSent[msg.sender] = teamTokenSent[msg.sender].add(amount);\n           require(teamTokenSent[msg.sender] <= teamTokenInitially[msg.sender]);\n           super._transfer(address(this),msg.sender,amount);           \n        } \n\n        else if(monthsNow >=27 && monthsNow < 30) \n        {\n           require(teamTokenSent[msg.sender].add(amount) <= (teamTokenInitially[msg.sender].mul(90)).div(100),'already withdraw 90 % tokens');\n           teamTokenSent[msg.sender] = teamTokenSent[msg.sender].add(amount);\n           require(teamTokenSent[msg.sender] <= teamTokenInitially[msg.sender]);           \n           super._transfer(address(this),msg.sender,amount);           \n        } \n\n        else if(monthsNow >=30) \n        {\n           require(teamTokenSent[msg.sender].add(amount) <= teamTokenInitially[msg.sender],'already withdraw 100 % tokens');\n           teamTokenSent[msg.sender] = teamTokenSent[msg.sender].add(amount);\n           super._transfer(address(this),msg.sender,amount);           \n        } \n\n    }      \n\n}",
  "sourcePath": "/home/abhi/Projects/fesschain/contracts/FessChain.sol",
  "compiler": {
    "name": "solc",
    "version": "0.4.24+commit.e67f0147.Emscripten.clang"
  },
  "schemaVersion": "2.0.1",
  "updatedAt": "2019-07-18T10:27:16.637Z"
}